:020000040800F2
:100000000050002021020008270200082B020008EF
:100010009D020008A1020008E9020008000000009B
:100020000000000000000000000000003103000894
:100030003503000800000000390300083D030008F4
:100040004D0300084D0300084D0300084D03000850
:100050004D0300084D0300084D0300084D03000840
:100060004D0300084D0300084D0300084D03000830
:100070004D030008FD0B00084D030008C10C0008EB
:100080004D0300084D0300084D0300084D03000810
:100090004D0300084D0300084D0300084D03000800
:1000A0004D0300084D0300084D0300084D030008F0
:1000B0004D0300084D0300084D0300084D030008E0
:1000C0004D0300084D0300084D0300084D030008D0
:1000D0004D0300084D0300084D0300084D030008C0
:1000E0004D0300084D0300084D0300080000000008
:1000F0000000000000000000000000000000000000
:1001000000000000000000005FF808F100B583B0B7
:1001100000F0AAF9304B314A1360314A1360314B79
:10012000314A32498B4204D21168196004330432D7
:10013000F7E72A4B1A682E4B9A4200D0FEE7284B6D
:100140001A682C4B9A42F9D1234B2B4A13602B4A45
:1001500013602B4B02E000221A600433294A9342B9
:10016000F9D3254B1B6813B9244B1B6803B1FEE779
:1001700000F086F9694601A800F022F9224C234BD1
:10018000E41AA4100025AC4214DC214C214BE41AE3
:10019000A4100025AC4213DC0099019800F05AFD30
:1001A00005461D4C1D4BE41AA410002C0EDC2846FD
:1001B00000F0E2F8154B53F8253098470135E2E797
:1001C000144B53F8253098470135E3E7013C134BB6
:1001D00053F824309847E8E7BABADECA0000002096
:1001E0008400002000000020B416000888000020D1
:1001F0007856341232547698880000205801002036
:10020000880000205C0100207803000878030008C3
:1002100078030008780300087803000878030008D2
:1002200008B5FFF773FF00BEFEE71EF0040F0CBF1A
:10023000EFF30880EFF309807146414A10472DE93A
:10024000F04182B004468846124B5E6B9F6B9D6AFC
:100250001B6B13F0020F03D00E4BDB6A002B0CDB81
:100260000D4800F0B5F8CDF800803B4632462946EF
:10027000204600F009F900BEFEE74BF6AB6100F046
:100280007DF90028ECD0034B4FF00042DA6202B057
:10029000BDE8F08100ED00E05416000800BEFEE766
:1002A0001EF0040F0CBFEFF30880EFF309807146D6
:1002B000244A10472DE9F04182B004468846084B95
:1002C0005E6B9F6B9D6A074800F082F8CDF8008056
:1002D0003B4632462946204600F0D6F800BEFEE7EF
:1002E00000ED00E0641600081EF0040F0CBFEFF3F1
:1002F0000880EFF309807146134A10472DE9F04159
:1003000082B004468846084B5E6B9F6B9D6A074827
:1003100000F05EF8CDF800803B4632462946204684
:1003200000F0B2F800BEFEE700ED00E07016000835
:1003300000BEFEE700BEFEE700BEFEE7704700001D
:100340003F020008B5020008FD02000800BEFEE7FB
:10035000B41600080000002088000020B416000831
:100360000000000000000000880000205C01002068
:08037000000000000000000085
:10037800FEE7000008B503460C4A12685AB10B4A5A
:100388001068033323F003030344094A934206D851
:10039800064A136008BD054A06491160EFE700F0F8
:1003A80097FC0C2303604FF0FF30F3E78C0000202C
:1003B800004C00205C01002001230360014B0B600E
:1003C800704700BF040000200FB400B583B004AB31
:1003D80053F8042B01938021064800F0ABFC002859
:1003E80003DD0146034800F037F803B05DF804EB7D
:1003F80004B07047940000202DE9F04385B004460E
:100408000F4643560BB10E461EE0042528462146EA
:10041800ABBE0446384605B0BDE8F08314F9011BAD
:1004280004AA1A4402F8101C0133AB42F6D304AAFA
:100438001344002203F8102C4FF00408E946404604
:100448004946ABBE8046761B002EE3D03546102EBB
:1004580028BF10250023E8E708B5FFF7CDFF08BD42
:1004680008B500F0FDF8024A024B9A6008BD00BFCB
:100478000000000800ED00E008B500F019F908BD1B
:10048800F8B504460D4617461E462748FFF79CFF59
:1004980021682648FFF798FF61682548FFF794FF11
:1004A800A1682448FFF790FFE1682348FFF78CFF15
:1004B80021692248FFF788FF61692148FFF784FF17
:1004C800A1692048FFF780FFE1691F48FFF77CFF1B
:1004D8001E48FFF779FF29461D48FFF775FF1D4C99
:1004E800E16A1D48FFF770FF216B1C48FFF76CFF9E
:1004F800E16B1B48FFF768FF15F0800F0AD115F470
:10050800004F0CD11748FFF75FFF06991648FFF711
:100518005BFFF8BD39461548FFF756FFEFE7314650
:100528001348FFF751FFEDE7381500084815000894
:10053800581500086815000878150008881500087F
:1005480098150008A8150008B8150008C81500086F
:10055800D415000800ED00E0E4150008F4150008C3
:1005680004160008341600083C1600081416000883
:100578002416000883691A888A4201D0002070472F
:100588000268033A012A03D80233836101207047C5
:100598000020704782B00023019300932C4A13680F
:1005A80043F4803313602A4B1B6803F40033009331
:1005B800019B01330193009B1BB9019BB3F5A06F0D
:1005C800F1D1234B1B6813F4003F06D0012300939D
:1005D800009B012B04D002B0704700230093F7E77B
:1005E8001C4B1A6842F010021A601A6822F00302C3
:1005F8001A601A6842F002021A60A3F580535A681A
:100608005A605A685A605A6842F480625A605A6856
:1006180022F47C125A605A6842F4E8125A601A6846
:1006280042F080721A600A4B1B6813F0007FFAD000
:10063800074B5A6822F003025A605A6842F00202D5
:100648005A60034B5B6803F00C03082BF9D1C2E72F
:10065800001002400020024008B5FFF79BFF08BDCC
:1006680008B5104B1A6842F001021A6059680E4A20
:100678000A405A601A6822F0847222F480321A60A2
:100688001A6822F480221A605A6822F4FE025A601C
:100698004FF41F029A60FFF7DFFF044B4FF0006230
:1006A8009A6008BD001002400000FFF800ED00E06D
:1006B8001F4B5B6803F00C03042B15D0082B17D0D5
:1006C8001BB11C4B1C4A1A6002E01A4B1A4A1A60EA
:1006D800174B5B68C3F30313184AD35CDAB21549A6
:1006E8000B68D3400B607047124B134A1A60EFE750
:1006F8000F4A53685268C3F38343023312F4803FAE
:100708000AD00B4A526812F4003F0BD00C4A02FB85
:1007180003F3084A1360DBE7094A02FB03F3054ABF
:100728001360D5E7044A02FB03F3024A1360CFE7DC
:10073800001002401C00002000127A000C0000206B
:1007480000093D0038B50C460A4982001518AB006F
:100758001D460B449B6843F4855343F01203294418
:100768008B6000221146204600F00CF9204600F06C
:1007780021F938BD0000024010B4064A83001C1855
:10078800A1000C461144896841F04001224491605F
:1007980010BC70470000024010B4064A83001C18C1
:1007A800A1000C461144896821F08001224491601F
:1007B80010BC704700000240F0B4054E84002718B2
:1007C800BD00354429616A61EB60F0BC704700BF29
:1007D8000000024010B4094B59688200012494407B
:1007E800214359601418A1000C461944896841F046
:1007F80001012344996010BC704700BF000002400B
:1008080010B4064A83001C18A1000C4611448968DC
:1008180021F001012244916010BC704700000240A1
:1008280004494B688000012202FA00F003434B6040
:10083800704700BF0000024070B4012825D018B1ED
:10084800022844D070BC7047072910D91029F9D85C
:100858002F4B586808398E000F21B14020EA01015A
:100868005960586802FA06F101435960EAE7284BD3
:1008780018688D000F21A94020EA01011960186845
:1008880002FA05F101431960DCE7072911D910299B
:10089800D8D820484468A1F108039B000F2199404B
:1008A80024EA01014160446802FA03F121434160EE
:1008B800C8E7184B18688C000F21A14020EA0101F5
:1008C8001960186802FA04F101431960BAE70729A8
:1008D80010D91029B6D8104B5868083989000F2448
:1008E8008C4020EA04005860586802FA01F101437C
:1008F8005960A7E7084B1C6888000F21814024EA4B
:10090800010119601C6802FA00F12143196099E796
:1009180000080140000C014000100140012810D0DF
:1009280010B102281AD070472AB1012303FA01F145
:10093800114B19617047012303FA01F10E4B5961FC
:1009480070472AB1012303FA01F10C4B1961704772
:10095800012303FA01F1094B596170472AB90123B0
:1009680003FA01F1064B59617047012303FA01F1BB
:10097800034B1961704700BF00080140000C01409B
:100988000010014010B4094B1C68094B23441B0A92
:10099800043301FA03F300F1604000F5644043EAD0
:1009A8000213DBB2037010BC704700BF14010020B3
:1009B80000FD05FA1F2808D93B2805D8203801234F
:1009C80003FA00F0044B18607047012303FA00F0A3
:1009D800024B1860704700BF04E100E000E100E04E
:1009E8001D4B002119601A6842F001021A601A684A
:1009F80042F080021A601A6842F480321A601A685B
:100A08001A601A6842F400221A601A6842F080726A
:100A18001A60043319601A6842F001021A601A68F1
:100A280042F010021A601A6842F400621A601A68EA
:100A380042F480721A601A6842F480421A601A6896
:100A480042F480321A601A681A601A681A601A68C2
:100A580042F0C0621A60704700100240012814D0AA
:100A680010B1022808D070470C480368012202FA26
:100A780001F1194301607047094803683E390122B2
:100A880002FA01F1194301607047064803682039EA
:100A9800012202FA01F11943016070471410024063
:100AA800181002401C10024008B5FFF799FF4021BA
:100AB8000220FFF7D3FF0A2205210020FFF7BCFE22
:100AC8000A2207210020FFF7B7FE0822062100208E
:100AD800FFF7B2FE022204210020FFF7ADFE08BD99
:100AE80021B9036823F0040303607047036843F0E7
:100AF80004030360704749B1036843F001030360CE
:100B08004AB9036823F0020303607047036823F0BF
:100B180001030360F4E7036843F0020303607047CE
:100B280010B54A210220FFF799FF104C0122114607
:100B38002046FFF7E0FF01212046FFF7D1FF236899
:100B480043F018032360236823F08003236023689D
:100B580043F440732360236823F48063236023688D
:100B680023F4006323600023636010BD003001405C
:100B7800036813F0400F03D1036843F04003036098
:100B88007047436843F002034360704708B5FFF7B6
:100B980027FF40210220FFF761FF4C210220FFF7C9
:100BA8005DFF0A2209210020FFF746FE04220A21E0
:100BB8000020FFF741FE0A4B40F241329A60DA68A2
:100BC80042F00402DA60DA6842F00802DA60DA68B1
:100BD80042F40052DA601A6822F040021A6008BD36
:100BE80000380140024A536943F04003536170479B
:100BF8000038014008B50220FFF712FE0220FFF777
:100C0800FFFD012200210846FFF788FE08BD00000D
:100C180010B50446FFF7BAFFFFF7E4FF2346094A79
:100C280009490420FFF7C8FD0F210420FFF78AFDBA
:100C38000420FFF7A1FD0420FFF7AEFD0420FFF715
:100C4800C9FD10BD043801402401002008B5FFF794
:100C5800C7FE40210220FFF701FF00210846FFF7E9
:100C6800FDFE012200210846FFF7E6FD0520FFF7FB
:100C7800CFFF08BD38B50546FFF716FFFFF750FF51
:100C88000A4C2046FFF774FF2046FFF77AFF2B46F1
:100C9800074A08490220FFF78FFD0D210220FFF7C0
:100CA80051FD0220FFF796FD38BD00BF003001401E
:100CB800240100200C30014008B50420FFF7B0FDE6
:100CC8000420FFF79DFD0520FFF7D4FF08BD0000B5
:100CD800014B1868704700BF2000002030B5141E73
:100CE80005469BB0184605DA8B234FF0FF302B6082
:100CF8001BB030BD4FF40273ADF80C300CBF234667
:100D080004F1FF33029305934FF6FF7300910491AA
:100D1800ADF80E3002461E9B6946284600F072F870
:100D2800431CBCBF8B232B60002CE1D00022009B0E
:100D38001A70DDE707B5009313460A4601460348D3
:100D48000068FFF7CBFF03B05DF804FB200000202C
:100D58002DE9F0478E6882469E420C469046994699
:100D680037D88A8912F4906F31D00223256809692F
:100D78006F1A656905EB450595FBF3F509F1010364
:100D88003B449D4238BF1D46530530D5294600F0E7
:100D980035FB064650B90C234FF0FF30CAF8003037
:100DA800A38943F04003A381BDE8F0873A4621694F
:100DB80000F0B4FAA38923F4906343F08003A3817D
:100DC80026613E4426604E466561ED1BA5604E4592
:100DD80000D94E4632464146206800F0AAFAA36878
:100DE80000209B1BA36023681E442660DCE72A467C
:100DF80000F05EFB06460028E2D12169504600F06B
:100E0800B1FAC8E72DE9F04F9DB003938B8980466E
:100E18001D060C4616460FD50B696BB9402100F02C
:100E2800EDFA2060206128B90C23C8F800304FF093
:100E3800FF30C7E0402363610023099320238DF826
:100E4800293030234FF0010B8DF82A3037463D46C4
:100E580015F8013B0BB1252B3ED1B7EB060A0BD099
:100E68005346324621464046FFF772FF013000F0F4
:100E7800A480099B534409933B78002B00F09D8084
:100E880000234FF0FF32CDE90523049307938DF833
:100E980053301A932F46052217F8011B4F4800F0CC
:100EA8002FFA049BD0B9D90644BF20228DF85320CD
:100EB8001A0744BF2B228DF853202A782A2A15D0E6
:100EC8002F4600200A25079A394611F8013B303B86
:100ED800092B4DD9B8B10FE02F46B8E73F4A3D4638
:100EE800801A0BFA00F018430490D3E7039A111DF7
:100EF80012680391002A01DB079204E0524243F092
:100F08000203079204933B782E2B0CD17B782A2B73
:100F180033D1039B02371A1D1B680392002BB8BFFD
:100F28004FF0FF3305932E4D03223978284600F001
:100F3800E7F938B14023401B03FA00F0049B01375E
:100F4800034304933978062226487E1C8DF828101E
:100F580000F0D6F9002838D0234B13BB039B073386
:100F680023F0070308330393099B4B4409936DE768
:100F780005FB023201200F46A6E700230A25194681
:100F880001370593384610F8012B303A092A03D95E
:100F9800002BC8D00591C6E705FB012101230746B0
:100FA800F0E703AB00932246104B04A94046AFF389
:100FB8000080B0F1FF3F8146D6D1A3895B063FF59B
:100FC80036AF09981DB0BDE8F08F03AB00932246F9
:100FD800064B04A9404600F081F8EAE780160008AD
:100FE800861600088A16000800000000590D00083F
:100FF8002DE9F04791461F468A680B6906469342D9
:10100800B8BF1346C9F8003091F843200C46DDF804
:10101800208012B10133C9F800302368990642BF15
:10102800D9F800300233C9F80030256815F00605F4
:1010380007D104F1190AE368D9F800209B1AAB42DA
:1010480029DC94F843302268003318BF0123920644
:101058002ED404F1430239463046C047013021D02E
:101068002368E56803F00603042B18BF0025D9F8A8
:1010780000204FF0000908BFAD1AA368226908BF15
:1010880025EAE5759342C4BF9B1AED181A344D45FD
:101098001AD1002008E00123524639463046C0479D
:1010A800013003D14FF0FF30BDE8F0870135C2E7CA
:1010B8003020E11881F843005A1C94F84510224466
:1010C800023382F84310C4E70123224639463046EA
:1010D800C0470130E6D009F10109D8E72DE9F0430E
:1010E80001F1430C0C46097E85B06E291746064669
:1010F80098460C9A00F0B38022D8632936D00AD8D3
:10110800002900F0B980582900F0838004F14205D5
:1011180084F8421032E0642901D06929F6D12068A8
:101128001368050603F104012AD51B681160002B1A
:1011380003DA2D225B4284F843206F480A2239E003
:10114800732900F09D8008D86F2920D07029DDD13F
:10115800236843F02003236003E0752917D078291A
:10116800D4D17823654884F8453055E0136804F1F4
:101178004205191D1B68116084F8423001238CE078
:101188001B6810F0400F116018BF1BB2CFE713683F
:101198002568181D1060280601D51B6802E068063E
:1011A800FBD51B886F2914BF0A2208225248002148
:1011B80084F843106568002DA560C0F29580216809
:1011C80021F004012160002B3DD1002D40F08E80DC
:1011D8006546082A0BD12368DB0708D523696268AE
:1011E8009A42DEBF302305F8013C05F1FF35ACEB30
:1011F80005032361CDF800803B4603AA214630460B
:10120800FFF7F6FE01304DD14FF0FF3005B0BDE8D5
:10121800F083394884F84510136821681D1D1B6840
:1012280015600A060BD5CA0744BF41F020012160AA
:101238001BB9226822F0200222601022B7E74D066F
:1012480048BF9BB2EFE76546B3FBF2F102FB1133EF
:10125800C35C05F8013D0B460029F5D1B9E71368D1
:101268002568181D6169106028061B6801D519607A
:1012780002E06A06FBD51980002365462361B9E7B9
:101288001368191D11601D6862680021284600F066
:1012980037F808B1401B606063682361002384F855
:1012A8004330A7E723692A4639463046C04701300C
:1012B800AAD023689B0713D4E068039B9842B8BF61
:1012C8001846A3E701234A4639463046C04701304D
:1012D8009AD00135E368039A9B1AAB42F2DCEBE73C
:1012E800002504F11909F5E7002BACD1037804F1C6
:1012F800420584F842306CE791160008A2160008EF
:1013080010B5C9B202449042034601D1002303E05C
:101318001C7801308C42F6D1184610BD10B5431E1A
:101328000A44914200D110BD11F8014B03F8014F56
:10133800F7E7884210B501EB020307D8421E99422D
:101348000AD011F8014B02F8014FF8E78342F5D9AA
:101358008118D21AD34200D110BD13F8014D01F8FB
:10136800014DF7E738B50546002943D051F8043C4C
:101378000C1F002BB8BFE41800F0D0F81E4A136801
:10138800104633B9636014602846BDE8384000F061
:10139800C6B8A3420BD921686218934201BF1A68E4
:1013A8005B685218226063600460EDE713465A6870
:1013B8000AB1A242FAD919685818A0420BD120687C
:1013C8000144581882421960DED1106852680144FD
:1013D80019605A60D8E702D90C232B60D4E720683B
:1013E80021188A4201BF1168526809182160626099
:1013F8005C60C9E738BD00BF1801002070B5CD1C7E
:1014080025F0030508350C2D38BF0C25002D0646A0
:1014180001DBA94203D90C233360002070BD00F022
:101428007DF8214A1468214691B9204C23681BB9DC
:10143800304600F063F820602946304600F05EF838
:10144800431C24D10C233046336000F068F8E4E7ED
:101458000B685B1B18D40B2B0FD90B60CC18CD5025
:10146800304600F05CF804F10B00231D20F0070063
:10147800C31AD3D05A42E250D0E74B688C4216BF09
:10148800636013600C46EBE70C464968CCE7C41C64
:1014980024F00304A04205D0211A304600F02EF8AB
:1014A8000130CFD02560DBE7180100201C010020A7
:1014B800F8B5074614460E4621B9BDE8F84011466E
:1014C800FFF79CBF22B9FFF74DFF25462846F8BD18
:1014D80000F026F8A0420FD221463846FFF78EFFCB
:1014E80005460028F2D031462246FFF717FF31465D
:1014F8003846FFF737FFE9E73546E7E738B5002311
:10150800054C054608462360FEF734FF431C02D10C
:10151800236803B12B6038BD200100207047704755
:1015280051F8043C181F002BBCBF0B58C01870475B
:10153800537461636B206672616D653A0A0000003E
:10154800205230203D2020253038580A0000000065
:10155800205231203D2020253038580A0000000054
:10156800205232203D2020253038580A0000000043
:10157800205233203D2020253038580A0000000032
:1015880020523132203D20253038580A0000000012
:10159800204C52203D2020253038580A00000000F9
:1015A800205043203D2020253038580A00000000F4
:1015B80020505352203D20253038580A00000000A2
:1015C8004653522F4641523A0A00000020434653E0
:1015D80052203D2020253038580A00002048465324
:1015E80052203D2020253038580A00002044465318
:1015F80052203D2020253038580A0000204146530B
:1016080052203D2020253038580A0000204D4D46F4
:101618004152203D20253038580A000020424641DA
:1016280052203D2020253038580A00004D69736348
:101638000A000000204C522F4558435F524554552C
:10164800524E3D20253038580A0000005B48617230
:10165800644661756C745D0A000000005B42757336
:101668004661756C745D0A005B5573616765466118
:10167800756C745D0A000000232D302B2000686C07
:101688004C0065666745464700303132333435369D
:1016980037383941424344454600303132333435D6
:0B16A800363738396162636465660004
:1016B4007856341290000020000000000000000062
:1016C40000000000010203040607080900A24A04FE
:1016D40024000020000000000000000000000000C2
:1016E40000000000000000000000000000000000F6
:1016F40000000000000000000000000000000000E6
:1017040000000000000000000000000000000000D5
:1017140000000000000000000000000000000000C5
:1017240000000000000000000000000000000000B5
:08173400000000003254769819
:040000050800010DE1
:00000001FF
