:020000040800F2
:100000000050002021020008270200082B020008EF
:100010009D020008A1020008E9020008000000009B
:100020000000000000000000000000003103000894
:100030003503000800000000390300083D030008F4
:100040004D0300084D0300084D0300084D03000850
:100050004D0300084D0300084D0300084D03000840
:100060004D0300084D0300084D0300084D03000830
:100070004D0300084D0300084D0300084D03000820
:100080004D0300084D0300084D0300084D03000810
:100090004D0300084D0300084D0300084D03000800
:1000A0004D0300084D0300084D0300084D030008F0
:1000B0004D0300084D0300084D0300084D030008E0
:1000C0004D0300084D0300084D0300084D030008D0
:1000D0004D030008810E00084D0300084D03000881
:1000E0004D0300084D0300084D0300080000000008
:1000F0000000000000000000000000000000000000
:1001000000000000000000005FF808F100B583B0B7
:1001100000F0AAF9304B314A1360314A1360314B79
:10012000314A32498B4204D21168196004330432D7
:10013000F7E72A4B1A682E4B9A4200D0FEE7284B6D
:100140001A682C4B9A42F9D1234B2B4A13602B4A45
:1001500013602B4B02E000221A600433294A9342B9
:10016000F9D3254B1B6813B9244B1B6803B1FEE779
:1001700000F086F9694601A800F022F9224C234BD1
:10018000E41AA4100025AC4214DC214C214BE41AE3
:10019000A4100025AC4213DC0099019800F088FD02
:1001A00005461D4C1D4BE41AA410002C0EDC2846FD
:1001B00000F0E2F8154B53F8253098470135E2E797
:1001C000144B53F8253098470135E3E7013C134BB6
:1001D00053F824309847E8E7BABADECA0000002096
:1001E0004801002000000020C81A00084C0100202F
:1001F00078563412325476984C0100205002002078
:100200004C01002054020020780300087803000805
:1002100078030008780300087803000878030008D2
:1002200008B5FFF773FF00BEFEE71EF0040F0CBF1A
:10023000EFF30880EFF309807146414A10472DE93A
:10024000F04182B004468846124B5E6B9F6B9D6AFC
:100250001B6B13F0020F03D00E4BDB6A002B0CDB81
:100260000D4800F0B5F8CDF800803B4632462946EF
:10027000204600F009F900BEFEE74BF6AB6100F046
:100280007DF90028ECD0034B4FF00042DA6202B057
:10029000BDE8F08100ED00E0A819000800BEFEE70F
:1002A0001EF0040F0CBFEFF30880EFF309807146D6
:1002B000244A10472DE9F04182B004468846084B95
:1002C0005E6B9F6B9D6A074800F082F8CDF8008056
:1002D0003B4632462946204600F0D6F800BEFEE7EF
:1002E00000ED00E0B81900081EF0040F0CBFEFF39A
:1002F0000880EFF309807146134A10472DE9F04159
:1003000082B004468846084B5E6B9F6B9D6A074827
:1003100000F05EF8CDF800803B4632462946204684
:1003200000F0B2F800BEFEE700ED00E0C4190008DE
:1003300000BEFEE700BEFEE700BEFEE7704700001D
:100340003F020008B5020008FD02000800BEFEE7FB
:10035000C81A0008000000204C010020C81A00083C
:1003600000000000000000004C01002054020020AA
:08037000000000000000000085
:10037800FEE7000008B503460C4A12685AB10B4A5A
:100388001068033323F003030344094A934206D851
:10039800064A136008BD054A06491160EFE700F0F8
:1003A800E1FD0C2303604FF0FF30F3E7500100201C
:1003B800004C00205402002001230360014B0B6015
:1003C800704700BF040000200FB400B583B004AB31
:1003D80053F8042B01938021064800F055FE0028AD
:1003E80003DD0146034800F037F803B05DF804EB7D
:1003F80004B07047580100202DE9F04385B0044649
:100408000F4643560BB10E461EE0042528462146EA
:10041800ABBE0446384605B0BDE8F08314F9011BAD
:1004280004AA1A4402F8101C0133AB42F6D304AAFA
:100438001344002203F8102C4FF00408E946404604
:100448004946ABBE8046761B002EE3D03546102EBB
:1004580028BF10250023E8E708B5FFF7CDFF08BD42
:1004680008B500F0FDF8024A024B9A6008BD00BFCB
:100478000000000800ED00E008B500F019F908BD1B
:10048800F8B504460D4617461E462748FFF79CFF59
:1004980021682648FFF798FF61682548FFF794FF11
:1004A800A1682448FFF790FFE1682348FFF78CFF15
:1004B80021692248FFF788FF61692148FFF784FF17
:1004C800A1692048FFF780FFE1691F48FFF77CFF1B
:1004D8001E48FFF779FF29461D48FFF775FF1D4C99
:1004E800E16A1D48FFF770FF216B1C48FFF76CFF9E
:1004F800E16B1B48FFF768FF15F0800F0AD115F470
:10050800004F0CD11748FFF75FFF06991648FFF711
:100518005BFFF8BD39461548FFF756FFEFE7314650
:100528001348FFF751FFEDE78C1800089C180008E6
:10053800AC180008BC180008CC180008DC18000823
:10054800EC180008FC1800080C1900081C19000811
:100558002819000800ED00E03819000848190008BB
:100568005819000888190008901900086819000827
:100578007819000883691A888A4201D000207047D8
:100588000268033A012A03D80233836101207047C5
:100598000020704782B00023019300932C4A13680F
:1005A80043F4803313602A4B1B6803F40033009331
:1005B800019B01330193009B1BB9019BB3F5A06F0D
:1005C800F1D1234B1B6813F4003F06D0012300939D
:1005D800009B012B04D002B0704700230093F7E77B
:1005E8001C4B1A6842F010021A601A6822F00302C3
:1005F8001A601A6842F002021A60A3F580535A681A
:100608005A605A685A605A6842F480625A605A6856
:1006180022F47C125A605A6842F4E8125A601A6846
:1006280042F080721A600A4B1B6813F0007FFAD000
:10063800074B5A6822F003025A605A6842F00202D5
:100648005A60034B5B6803F00C03082BF9D1C2E72F
:10065800001002400020024008B5FFF79BFF08BDCC
:1006680008B5104B1A6842F001021A6059680E4A20
:100678000A405A601A6822F0847222F480321A60A2
:100688001A6822F480221A605A6822F4FE025A601C
:100698004FF41F029A60FFF7DFFF044B4FF0006230
:1006A8009A6008BD001002400000FFF800ED00E06D
:1006B8001F4B5B6803F00C03042B15D0082B17D0D5
:1006C8001BB11C4B1C4A1A6002E01A4B1A4A1A60EA
:1006D800174B5B68C3F30313184AD35CDAB21549A6
:1006E8000B68D3400B607047124B134A1A60EFE750
:1006F8000F4A53685268C3F38343023312F4803FAE
:100708000AD00B4A526812F4003F0BD00C4A02FB85
:1007180003F3084A1360DBE7094A02FB03F3054ABF
:100728001360D5E7044A02FB03F3024A1360CFE7DC
:10073800001002401C00002000127A000C0000206B
:1007480000093D0030B583B01F4800F02BFCC5B24E
:10075800002405E01C4B185D00F074FA0134E4B283
:10076800AC42F7D30023009302E0009B01330093CF
:10077800009A164B9A42F8D9154800F013FCC5B2F6
:10078800002405E0124B185D00F05CFA0134E4B275
:10079800AC42F7D30023019302E0019B013301939C
:1007A800019A0A4B9A42F8D90A4800F0FBFBC5B2F5
:1007B800002405E0074B185D00F044FA0134E4B268
:1007C800AC42F7D303B030BD200000201FA10700C2
:1007D8002800002058000020F8B507460D4620489C
:1007E80000F0E0FBC6B2002405E01D4B185D00F0E8
:1007F80029FA0134E4B2B442F7D3384600F0D2FB08
:10080800C6B2002404E0385D00F01CFA0134E4B2FA
:10081800B442F8D3222000F015FA2C2000F012FA86
:10082800222000F00FFA284600F0BCFBC6B20024D4
:1008380004E0285D00F006FA0134E4B2B442F8D3CB
:10084800084800F0AFFBC5B2002405E0054B185D71
:1008580000F0F8F90134E4B2AC42F7D3F8BD00BFB8
:100868004C0000207000002070B505461B4800F0C1
:1008780099FBC6B2002405E0184B185D00F0E2F9B8
:100888000134E4B2B442F7D3154800F08BFBC6B28A
:10089800002405E0124B185D00F0D4F90134E4B2ED
:1008A800B442F7D3284600F07DFBC6B2002404E02A
:1008B800285D00F0C7F90134E4B2B442F8D309481E
:1008C80000F070FBC5B2002405E0064B185D00F08F
:1008D800B9F90134E4B2AC42F7D370BD3C00002052
:1008E800680000207400002070B584B006462048D7
:1008F80000F058FBC5B2002405E01D4B185D00F060
:10090800A1F90134E4B2AC42F7D3304600F04AFB17
:10091800C0B202300A2202A9C0B200F041FB02A80C
:1009280000F040FBC5B2002407E004AB234413F8F1
:10093800080C00F087F90134E4B2AC42F5D90D4B4C
:100948001B68ADF804301B0C8DF8063001A800F0C8
:1009580029FBC5B2002407E004AB234413F80C0CB0
:1009680000F070F90134E4B2AC42F5D304B070BDC4
:1009780030000020641A000870B582B0064600F006
:1009880011FBC5B2002404E0305D00F05BF90134CE
:10099800E4B2AC42F8D90C4B1B68ADF804301B0C20
:1009A8008DF8063001A800F0FDFAC5B2002407E072
:1009B80002AB234413F8040C00F044F90134E4B208
:1009C800AC42F5D302B070BD641A000870B40128B7
:1009D80025D018B1022844D070BC7047072910D917
:1009E8001029F9D82F4B586808398E000F21B140CB
:1009F80020EA01015960586802FA06F1014359607A
:100A0800EAE7284B18688D000F21A94020EA010168
:100A18001960186802FA05F101431960DCE7072933
:100A280011D91029D8D820484468A1F108039B009F
:100A38000F21994024EA01014160446802FA03F158
:100A480021434160C8E7184B18688C000F21A1406A
:100A580020EA01011960186802FA04F101431960DB
:100A6800BAE7072910D91029B6D8104B58680839A1
:100A780089000F248C4020EA04005860586802FA64
:100A880001F101435960A7E7084B1C6888000F2152
:100A9800814024EA010119601C6802FA00F121432F
:100AA800196099E700080140000C0140001001405E
:100AB800012809D010B102280CD070470A4042EA38
:100AC8000141074B196170470A4042EA0141054B51
:100AD800196170470A4042EA0141034B19617047A6
:100AE80000080140000C0140001001401F2808D9EF
:100AF8003B2805D82038012303FA00F0044B18607E
:100B08007047012303FA00F0024B1860704700BFDA
:100B180004E100E000E100E01D4B002119601A68C3
:100B280042F001021A601A6842F080021A601A68DC
:100B380042F480321A601A681A601A6842F4002275
:100B48001A601A6842F080721A60043319601A68D1
:100B580042F001021A601A6842F010021A601A681C
:100B680042F400621A601A6842F480721A601A68C5
:100B780042F480421A601A6842F480321A601A6895
:100B88001A601A681A601A6842F0C0621A607047E0
:100B980000100240012814D010B1022808D0704774
:100BA8000C480368012202FA01F1194301607047F9
:100BB800094803683E39012202FA01F1194301602C
:100BC8007047064803682039012202FA01F11943E7
:100BD8000160704714100240181002401C100240B7
:100BE80008B540210220FFF7D5FF4C210220FFF76E
:100BF800D1FF0A2209210020FFF7E8FE04220A217A
:100C08000020FFF7E3FE084B45229A60DA6842F4B9
:100C18000052DA60DA6842F00402DA60DA6842F018
:100C28000802DA6008BD00BF0038014008B5044A70
:100C3800D36843F02003D3602520FFF757FF08BD92
:100C480000380140034B5860024B1B6813F0800FBB
:100C5800FAD070470038014008B50E4A13780133BE
:100C6800DBB21370013B032B07D8DFE803F0020760
:100C78000B0F09490948FFF7AFFD08BD0848FFF702
:100C8800F3FDFAE70748FFF72FFEF6E70548FFF7F9
:100C980073FEF2E7D8010020BC000020C800002045
:100CA800AC0000207C00002000B583B0FFF734FFC3
:100CB80040210220FFF76EFF00238DF807300BE07C
:100CC8009DF8071001220020FFF780FE9DF80730ED
:100CD8000133DBB28DF807309DF80730DBB2092B02
:100CE800EED9FFF77DFFFFF72DFDFFF79FFFFEE72A
:100CF8000023C25CCAB130B404E094B10133DBB262
:100D0800C25C7AB10C789442F8D101228C5C002C38
:100D1800F3D00133DBB2C55CA542EED10132D2B2C9
:100D2800F4E70122104630BC7047104670470000B7
:100D380008B540494048FFF7DBFF00283BD13F4951
:100D48003D48FFF7D5FF00283CD13D493A48FFF719
:100D5800CFFF00283DD13B493748FFF7C9FF00289E
:100D68003ED139493448FFF7C3FF00283FD13749FE
:100D78003148FFF7BDFF002840D135492E48FFF71D
:100D8800B7FF002841D133492B48FFF7B1FF0028AE
:100D980042D131492848FFF7ABFF002843D12F49FA
:100DA8002548FFF7A5FF60B12D4B5A8AFF21002087
:100DB800FFF77EFE05E02A4B1A88FF210020FFF787
:100DC80077FE08BD264B5A88FF210020FFF770FEEA
:100DD800F7E7234B9A88FF210020FFF769FEF0E729
:100DE8001F4BDA88FF210020FFF762FEE9E71C4B62
:100DF8001A89FF210020FFF75BFEE2E7184B5A89AA
:100E0800FF210020FFF754FEDBE7154B9A89FF21ED
:100E18000020FFF74DFED4E7114BDA89FF210020AF
:100E2800FFF746FECDE70E4B1A8AFF210020FFF799
:100E38003FFEC6E7D4190008E8010020E0190008C1
:100E4800EC190008F8190008041A0008101A00081C
:100E58001C1A0008281A0008341A0008401A00084A
:100E6800D0000020002303E00022C2540133DBB28B
:100E78008B42F9D370470000304B1B6813F0200FEA
:100E880004D12E4B5A682E4B1A70704710B52B4B55
:100E980059682C4A13782C48C154013313702B49D4
:100EA800FFF726FF18B12A4B1B78022B22D92949B4
:100EB8002548FFF71DFF18B1254B1B78032B23D0BE
:100EC80025492148FFF714FF20B924491E48FFF798
:100ED8000FFF18B300241E4B1C7064211A48FFF73B
:100EE800C1FF184B1C70FFF7B7FE144B5A68144B20
:100EF8001A7010BD64211448FFF7B4FF114B00228B
:100F08001A70FFF7A9FEF0E764210F48FFF7AAFF60
:100F18000C4B00221A70FFF79FFEE6E710490A48BB
:100F2800FFF7E6FE0028E0D0FFF702FF642106483D
:100F3800FFF798FF034B00221A70D6E700380140EC
:100F48004C020020D9010020E80100204C1A0008BA
:100F5800D8010020541A0008581A0008601A00081E
:100F6800681A0008014B1868704700BFE4000020A9
:100F7800931E222B10B50C4604D900231C460B7077
:100F8800204610BD0A2A09D1002807DA2D230B7044
:100F980001214042214400F00DF8F1E70021F9E772
:100FA800FFF7E6BF034613F8012B002AFBD1181AF6
:100FB80001387047F0B58BB005460C466E461B4BA2
:100FC80003F1200C374618685968083303C763458E
:100FD8003E46F7D118681B7938603B71931E222B67
:100FE8004FF0000304D923701C4620460BB0F0BD17
:100FF800661EB5FBF2F002FB10550AAF3D4415F82A
:10100800285C591C06F8015F054668B922466054F9
:101018002344191B101B8142E7DD1178187802F868
:10102800010B03F80119F4E70B46E2E7701A000810
:1010380030B5141E05469BB0184605DA8B234FF0D1
:10104800FF302B601BB030BD4FF40273ADF80C308D
:101058000CBF234604F1FF33029305934FF6FF7349
:1010680000910491ADF80E3002461E9B6946284651
:1010780000F072F8431CBCBF8B232B60002CE1D01E
:101088000022009B1A70DDE707B5009313460A4655
:10109800014603480068FFF7CBFF03B05DF804FB87
:1010A800E40000202DE9F0478E6882469E420C46F7
:1010B8009046994637D88A8912F4906F31D0022326
:1010C800256809696F1A656905EB450595FBF3F510
:1010D80009F101033B449D4238BF1D46530530D5F5
:1010E800294600F035FB064650B90C234FF0FF3077
:1010F800CAF80030A38943F04003A381BDE8F08714
:101108003A46216900F0B4FAA38923F4906343F0C6
:101118008003A38126613E4426604E466561ED1B2F
:10112800A5604E4500D94E4632464146206800F03B
:10113800AAFAA36800209B1BA36023681E442660AC
:10114800DCE72A4600F05EFB06460028E2D121696A
:10115800504600F0B1FAC8E72DE9F04F9DB003936F
:101168008B8980461D060C4616460FD50B696BB950
:10117800402100F0EDFA2060206128B90C23C8F85E
:1011880000304FF0FF30C7E040236361002309932C
:1011980020238DF8293030234FF0010B8DF82A30A9
:1011A80037463D4615F8013B0BB1252B3ED1B7EB31
:1011B800060A0BD05346324621464046FFF772FFD7
:1011C800013000F0A480099B534409933B78002B1D
:1011D80000F09D8000234FF0FF32CDE905230493F2
:1011E80007938DF853301A932F46052217F8011BE1
:1011F8004F4800F02FFA049BD0B9D90644BF2022EB
:101208008DF853201A0744BF2B228DF853202A78D3
:101218002A2A15D02F4600200A25079A394611F8A0
:10122800013B303B092B4DD9B8B10FE02F46B8E749
:101238003F4A3D46801A0BFA00F018430490D3E762
:10124800039A111D12680391002A01DB079204E03A
:10125800524243F00203079204933B782E2B0CD1A1
:101268007B782A2B33D1039B02371A1D1B68039204
:10127800002BB8BF4FF0FF3305932E4D032239786A
:10128800284600F0E7F938B14023401B03FA00F084
:10129800049B0137034304933978062226487E1CB1
:1012A8008DF8281000F0D6F9002838D0234B13BB4E
:1012B800039B073323F0070308330393099B4B442D
:1012C80009936DE705FB023201200F46A6E70023CC
:1012D8000A25194601370593384610F8012B303A8C
:1012E800092A03D9002BC8D00591C6E705FB0121BF
:1012F80001230746F0E703AB00932246104B04A9ED
:101308004046AFF30080B0F1FF3F8146D6D1A389B4
:101318005B063FF536AF09981DB0BDE8F08F03AB0B
:1013280000932246064B04A9404600F081F8EAE7FC
:10133800951A00089B1A00089F1A00080000000070
:10134800AD1000082DE9F04791461F468A680B69E1
:1013580006469342B8BF1346C9F8003091F84320B7
:101368000C46DDF8208012B10133C9F8003023683B
:10137800990642BFD9F800300233C9F80030256811
:1013880015F0060507D104F1190AE368D9F8002019
:101398009B1AAB4229DC94F843302268003318BF0B
:1013A800012392062ED404F1430239463046C04741
:1013B800013021D02368E56803F00603042B18BF29
:1013C8000025D9F800204FF0000908BFAD1AA3681E
:1013D800226908BF25EAE5759342C4BF9B1AED1838
:1013E8001A344D451AD1002008E0012352463946E7
:1013F8003046C047013003D14FF0FF30BDE8F087D9
:101408000135C2E73020E11881F843005A1C94F8EE
:1014180045102244023382F84310C4E701232246D0
:1014280039463046C0470130E6D009F10109D8E70E
:101438002DE9F04301F1430C0C46097E85B06E2975
:101448001746064698460C9A00F0B38022D86329BE
:1014580036D00AD8002900F0B980582900F08380D6
:1014680004F1420584F8421032E0642901D0692968
:10147800F6D120681368050603F104012AD51B6814
:101488001160002B03DA2D225B4284F843206F4859
:101498000A2239E0732900F09D8008D86F2920D0EE
:1014A8007029DDD1236843F02003236003E0752908
:1014B80017D07829D4D17823654884F8453055E089
:1014C800136804F14205191D1B68116084F8423045
:1014D80001238CE01B6810F0400F116018BF1BB28D
:1014E800CFE713682568181D1060280601D51B680A
:1014F80002E06806FBD51B886F2914BF0A22082260
:101508005248002184F843106568002DA560C0F298
:101518009580216821F004012160002B3DD1002D28
:1015280040F08E806546082A0BD12368DB0708D572
:10153800236962689A42DEBF302305F8013C05F151
:10154800FF35ACEB05032361CDF800803B4603AAC9
:1015580021463046FFF7F6FE01304DD14FF0FF30FF
:1015680005B0BDE8F083394884F845101368216850
:101578001D1D1B6815600A060BD5CA0744BF41F03C
:10158800200121601BB9226822F02002226010226B
:10159800B7E74D0648BF9BB2EFE76546B3FBF2F1EC
:1015A80002FB1133C35C05F8013D0B460029F5D158
:1015B800B9E713682568181D6169106028061B685B
:1015C80001D5196002E06A06FBD51980002365463B
:1015D8002361B9E71368191D11601D68626800214D
:1015E800284600F037F808B1401B60606368236143
:1015F800002384F84330A7E723692A463946304652
:10160800C0470130AAD023689B0713D4E068039B26
:101618009842B8BF1846A3E701234A4639463046E0
:10162800C04701309AD00135E368039A9B1AAB4250
:10163800F2DCEBE7002504F11909F5E7002BACD142
:10164800037804F1420584F842306CE7A61A0008D2
:10165800B71A000810B5C9B202449042034601D136
:10166800002303E01C7801308C42F6D1184610BDE7
:1016780010B5431E0A44914200D110BD11F8014B28
:1016880003F8014FF7E7884210B501EB020307D8CA
:10169800421E99420AD011F8014B02F8014FF8E7AF
:1016A8008342F5D98118D21AD34200D110BD13F85C
:1016B800014D01F8014DF7E738B50546002943D03B
:1016C80051F8043C0C1F002BB8BFE41800F0D0F808
:1016D8001E4A1368104633B9636014602846BDE893
:1016E800384000F0C6B8A3420BD92168621893426B
:1016F80001BF1A685B685218226063600460EDE7F6
:1017080013465A680AB1A242FAD919685818A04271
:101718000BD120680144581882421960DED1106844
:101728005268014419605A60D8E702D90C232B602B
:10173800D4E7206821188A4201BF11685268091845
:10174800216062605C60C9E738BD00BFDC01002031
:1017580070B5CD1C25F0030508350C2D38BF0C25B8
:10176800002D064601DBA94203D90C233360002073
:1017780070BD00F07DF8214A1468214691B9204CCB
:1017880023681BB9304600F063F8206029463046CC
:1017980000F05EF8431C24D10C233046336000F07F
:1017A80068F8E4E70B685B1B18D40B2B0FD90B60A8
:1017B800CC18CD50304600F05CF804F10B00231D26
:1017C80020F00700C31AD3D05A42E250D0E74B6842
:1017D8008C4216BF636013600C46EBE70C46496801
:1017E800CCE7C41C24F00304A04205D0211A3046DB
:1017F80000F02EF80130CFD02560DBE7DC010020B7
:10180800E0010020F8B5074614460E4621B9BDE8A8
:10181800F8401146FFF79CBF22B9FFF74DFF254658
:101828002846F8BD00F026F8A0420FD221463846D7
:10183800FFF78EFF05460028F2D031462246FFF713
:1018480017FF31463846FFF737FFE9E73546E7E740
:1018580038B50023054C054608462360FEF78AFD87
:10186800431C02D1236803B12B6038BDE40100207A
:101878007047704751F8043C181F002BBCBF0B5829
:10188800C0187047537461636B206672616D653A66
:101898000A000000205230203D2020253038580A08
:1018A80000000000205231203D2020253038580A01
:1018B80000000000205232203D2020253038580AF0
:1018C80000000000205233203D2020253038580ADF
:1018D8000000000020523132203D20253038580ABF
:1018E80000000000204C52203D2020253038580AA6
:1018F80000000000205043203D2020253038580AA1
:101908000000000020505352203D20253038580A4E
:10191800000000004653522F4641523A0A00000088
:101928002043465352203D2020253038580A0000D5
:101938002048465352203D2020253038580A0000C0
:101948002044465352203D2020253038580A0000B4
:101958002041465352203D2020253038580A0000A7
:10196800204D4D464152203D20253038580A000070
:101978002042464152203D2020253038580A000098
:101988004D6973630A000000204C522F4558435F8D
:1019980052455455524E3D20253038580A00000013
:1019A8005B486172644661756C745D0A00000000F2
:1019B8005B4275734661756C745D0A005B557361B3
:1019C80067654661756C745D0A0000002B504944D8
:1019D8002C313A30000000002B5049442C313A3168
:1019E800000000002B5049442C313A32000000001E
:1019F8002B5049442C313A33000000002B50494405
:101A08002C313A34000000002B5049442C313A352F
:101A1800000000002B5049442C313A3600000000E9
:101A28002B5049442C313A37000000002B504944D0
:101A38002C313A38000000002B5049442C313A39F7
:101A4800000000004F4B0D0A000000003E2000007F
:101A58004552524F520D0A004641494C0D0A0000AA
:101A68002B5049442C313A00303132333435363733
:101A780038396162636465666768696A6B6C6D6E44
:101A88006F707172737475767778797A00232D3058
:101A98002B2000686C4C006566674546470030316E
:101AA80032333435363738394142434445460030BD
:101AB80031323334353637383961626364656600EC
:101AC8007856341254010020000000000000000085
:101AD80000000000010203040607080900A24A04E6
:101AE80041540D0A00FFFFFF415445300D0A00FF25
:101AF80041542B43495053454E443D0041542B43D8
:101B0800495053544152543D00FFFFFF41542B4369
:101B1800574A41503D2200FF41542B43574D4F44F3
:101B2800453D310D0A00FFFF22544350222C22006C
:101B3800220D0A00222C38300D0A00FF4745542098
:101B4800687474703A2F2F61726D616C65783832E1
:101B5800382E667265657661722E636F6D2F7374A9
:101B6800617475732E74787400FFFFFF3136322E5E
:101B78003235332E3135352E323236003132333468
:101B8800353637383930300073686568616200FF70
:101B98003F0006005B004F0066006D007D000700F7
:101BA8007F006F00E8000020000000000000000037
:101BB800000000000000000000000000000000001D
:101BC800000000000000000000000000000000000D
:101BD80000000000000000000000000000000000FD
:101BE80000000000000000000000000000000000ED
:101BF80000000000000000000000000000000000DD
:0C1C08000000000000000000325476983C
:040000050800010DE1
:00000001FF
